{
  "_format": "hh-sol-artifact-1",
  "contractName": "LoyaltyToken",
  "sourceName": "contracts/LoyaltyToken.sol",
  "abi": [
    {
      "inputs": [],
      "stateMutability": "nonpayable",
      "type": "constructor"
    },
    {
      "inputs": [
        {
          "internalType": "address",
          "name": "spender",
          "type": "address"
        },
        {
          "internalType": "uint256",
          "name": "allowance",
          "type": "uint256"
        },
        {
          "internalType": "uint256",
          "name": "needed",
          "type": "uint256"
        }
      ],
      "name": "ERC20InsufficientAllowance",
      "type": "error"
    },
    {
      "inputs": [
        {
          "internalType": "address",
          "name": "sender",
          "type": "address"
        },
        {
          "internalType": "uint256",
          "name": "balance",
          "type": "uint256"
        },
        {
          "internalType": "uint256",
          "name": "needed",
          "type": "uint256"
        }
      ],
      "name": "ERC20InsufficientBalance",
      "type": "error"
    },
    {
      "inputs": [
        {
          "internalType": "address",
          "name": "approver",
          "type": "address"
        }
      ],
      "name": "ERC20InvalidApprover",
      "type": "error"
    },
    {
      "inputs": [
        {
          "internalType": "address",
          "name": "receiver",
          "type": "address"
        }
      ],
      "name": "ERC20InvalidReceiver",
      "type": "error"
    },
    {
      "inputs": [
        {
          "internalType": "address",
          "name": "sender",
          "type": "address"
        }
      ],
      "name": "ERC20InvalidSender",
      "type": "error"
    },
    {
      "inputs": [
        {
          "internalType": "address",
          "name": "spender",
          "type": "address"
        }
      ],
      "name": "ERC20InvalidSpender",
      "type": "error"
    },
    {
      "inputs": [
        {
          "internalType": "address",
          "name": "owner",
          "type": "address"
        }
      ],
      "name": "OwnableInvalidOwner",
      "type": "error"
    },
    {
      "inputs": [
        {
          "internalType": "address",
          "name": "account",
          "type": "address"
        }
      ],
      "name": "OwnableUnauthorizedAccount",
      "type": "error"
    },
    {
      "anonymous": false,
      "inputs": [
        {
          "indexed": true,
          "internalType": "address",
          "name": "owner",
          "type": "address"
        },
        {
          "indexed": true,
          "internalType": "address",
          "name": "spender",
          "type": "address"
        },
        {
          "indexed": false,
          "internalType": "uint256",
          "name": "value",
          "type": "uint256"
        }
      ],
      "name": "Approval",
      "type": "event"
    },
    {
      "anonymous": false,
      "inputs": [
        {
          "indexed": true,
          "internalType": "address",
          "name": "previousOwner",
          "type": "address"
        },
        {
          "indexed": true,
          "internalType": "address",
          "name": "newOwner",
          "type": "address"
        }
      ],
      "name": "OwnershipTransferred",
      "type": "event"
    },
    {
      "anonymous": false,
      "inputs": [
        {
          "indexed": true,
          "internalType": "address",
          "name": "from",
          "type": "address"
        },
        {
          "indexed": true,
          "internalType": "address",
          "name": "to",
          "type": "address"
        },
        {
          "indexed": false,
          "internalType": "uint256",
          "name": "value",
          "type": "uint256"
        }
      ],
      "name": "Transfer",
      "type": "event"
    },
    {
      "inputs": [
        {
          "internalType": "address",
          "name": "owner",
          "type": "address"
        },
        {
          "internalType": "address",
          "name": "spender",
          "type": "address"
        }
      ],
      "name": "allowance",
      "outputs": [
        {
          "internalType": "uint256",
          "name": "",
          "type": "uint256"
        }
      ],
      "stateMutability": "view",
      "type": "function"
    },
    {
      "inputs": [
        {
          "internalType": "address",
          "name": "spender",
          "type": "address"
        },
        {
          "internalType": "uint256",
          "name": "value",
          "type": "uint256"
        }
      ],
      "name": "approve",
      "outputs": [
        {
          "internalType": "bool",
          "name": "",
          "type": "bool"
        }
      ],
      "stateMutability": "nonpayable",
      "type": "function"
    },
    {
      "inputs": [
        {
          "internalType": "address",
          "name": "account",
          "type": "address"
        }
      ],
      "name": "balanceOf",
      "outputs": [
        {
          "internalType": "uint256",
          "name": "",
          "type": "uint256"
        }
      ],
      "stateMutability": "view",
      "type": "function"
    },
    {
      "inputs": [
        {
          "internalType": "address",
          "name": "burner",
          "type": "address"
        },
        {
          "internalType": "uint256",
          "name": "amount",
          "type": "uint256"
        }
      ],
      "name": "burnFrom",
      "outputs": [],
      "stateMutability": "nonpayable",
      "type": "function"
    },
    {
      "inputs": [],
      "name": "decimals",
      "outputs": [
        {
          "internalType": "uint8",
          "name": "",
          "type": "uint8"
        }
      ],
      "stateMutability": "view",
      "type": "function"
    },
    {
      "inputs": [
        {
          "internalType": "address",
          "name": "to",
          "type": "address"
        },
        {
          "internalType": "uint256",
          "name": "amount",
          "type": "uint256"
        }
      ],
      "name": "mint",
      "outputs": [],
      "stateMutability": "nonpayable",
      "type": "function"
    },
    {
      "inputs": [],
      "name": "name",
      "outputs": [
        {
          "internalType": "string",
          "name": "",
          "type": "string"
        }
      ],
      "stateMutability": "view",
      "type": "function"
    },
    {
      "inputs": [],
      "name": "owner",
      "outputs": [
        {
          "internalType": "address",
          "name": "",
          "type": "address"
        }
      ],
      "stateMutability": "view",
      "type": "function"
    },
    {
      "inputs": [],
      "name": "renounceOwnership",
      "outputs": [],
      "stateMutability": "nonpayable",
      "type": "function"
    },
    {
      "inputs": [],
      "name": "symbol",
      "outputs": [
        {
          "internalType": "string",
          "name": "",
          "type": "string"
        }
      ],
      "stateMutability": "view",
      "type": "function"
    },
    {
      "inputs": [],
      "name": "totalSupply",
      "outputs": [
        {
          "internalType": "uint256",
          "name": "",
          "type": "uint256"
        }
      ],
      "stateMutability": "view",
      "type": "function"
    },
    {
      "inputs": [
        {
          "internalType": "address",
          "name": "to",
          "type": "address"
        },
        {
          "internalType": "uint256",
          "name": "value",
          "type": "uint256"
        }
      ],
      "name": "transfer",
      "outputs": [
        {
          "internalType": "bool",
          "name": "",
          "type": "bool"
        }
      ],
      "stateMutability": "nonpayable",
      "type": "function"
    },
    {
      "inputs": [
        {
          "internalType": "address",
          "name": "from",
          "type": "address"
        },
        {
          "internalType": "address",
          "name": "to",
          "type": "address"
        },
        {
          "internalType": "uint256",
          "name": "value",
          "type": "uint256"
        }
      ],
      "name": "transferFrom",
      "outputs": [
        {
          "internalType": "bool",
          "name": "",
          "type": "bool"
        }
      ],
      "stateMutability": "nonpayable",
      "type": "function"
    },
    {
      "inputs": [
        {
          "internalType": "address",
          "name": "newOwner",
          "type": "address"
        }
      ],
      "name": "transferOwnership",
      "outputs": [],
      "stateMutability": "nonpayable",
      "type": "function"
    }
  ],
  "bytecode": "0x608060405234801561001057600080fd5b50336040518060400160405280600c81526020017f4c6f79616c7479546f6b656e00000000000000000000000000000000000000008152506040518060400160405280600381526020017f4c4f590000000000000000000000000000000000000000000000000000000000815250816003908161008d9190610728565b50806004908161009d9190610728565b505050600073ffffffffffffffffffffffffffffffffffffffff168173ffffffffffffffffffffffffffffffffffffffff16036101125760006040517f1e4fbdf7000000000000000000000000000000000000000000000000000000008152600401610109919061083b565b60405180910390fd5b6101218161015c60201b60201c565b506101573361013461022260201b60201c565b600a61014091906109c5565b600a61014c9190610a10565b61022b60201b60201c565b610ae7565b6000600560009054906101000a900473ffffffffffffffffffffffffffffffffffffffff16905081600560006101000a81548173ffffffffffffffffffffffffffffffffffffffff021916908373ffffffffffffffffffffffffffffffffffffffff1602179055508173ffffffffffffffffffffffffffffffffffffffff168173ffffffffffffffffffffffffffffffffffffffff167f8be0079c531659141344cd1fd0a4f28419497f9722a3daafe3b4186f6b6457e060405160405180910390a35050565b60006012905090565b600073ffffffffffffffffffffffffffffffffffffffff168273ffffffffffffffffffffffffffffffffffffffff160361029d5760006040517fec442f05000000000000000000000000000000000000000000000000000000008152600401610294919061083b565b60405180910390fd5b6102af600083836102b360201b60201c565b5050565b600073ffffffffffffffffffffffffffffffffffffffff168373ffffffffffffffffffffffffffffffffffffffff16036103055780600260008282546102f99190610a52565b925050819055506103d8565b60008060008573ffffffffffffffffffffffffffffffffffffffff1673ffffffffffffffffffffffffffffffffffffffff16815260200190815260200160002054905081811015610391578381836040517fe450d38c00000000000000000000000000000000000000000000000000000000815260040161038893929190610a95565b60405180910390fd5b8181036000808673ffffffffffffffffffffffffffffffffffffffff1673ffffffffffffffffffffffffffffffffffffffff16815260200190815260200160002081905550505b600073ffffffffffffffffffffffffffffffffffffffff168273ffffffffffffffffffffffffffffffffffffffff1603610421578060026000828254039250508190555061046e565b806000808473ffffffffffffffffffffffffffffffffffffffff1673ffffffffffffffffffffffffffffffffffffffff168152602001908152602001600020600082825401925050819055505b8173ffffffffffffffffffffffffffffffffffffffff168373ffffffffffffffffffffffffffffffffffffffff167fddf252ad1be2c89b69c2b068fc378daa952ba7f163c4a11628f55a4df523b3ef836040516104cb9190610acc565b60405180910390a3505050565b600081519050919050565b7f4e487b7100000000000000000000000000000000000000000000000000000000600052604160045260246000fd5b7f4e487b7100000000000000000000000000000000000000000000000000000000600052602260045260246000fd5b6000600282049050600182168061055957607f821691505b60208210810361056c5761056b610512565b5b50919050565b60008190508160005260206000209050919050565b60006020601f8301049050919050565b600082821b905092915050565b6000600883026105d47fffffffffffffffffffffffffffffffffffffffffffffffffffffffffffffffff82610597565b6105de8683610597565b95508019841693508086168417925050509392505050565b6000819050919050565b6000819050919050565b600061062561062061061b846105f6565b610600565b6105f6565b9050919050565b6000819050919050565b61063f8361060a565b61065361064b8261062c565b8484546105a4565b825550505050565b600090565b61066861065b565b610673818484610636565b505050565b5b818110156106975761068c600082610660565b600181019050610679565b5050565b601f8211156106dc576106ad81610572565b6106b684610587565b810160208510156106c5578190505b6106d96106d185610587565b830182610678565b50505b505050565b600082821c905092915050565b60006106ff600019846008026106e1565b1980831691505092915050565b600061071883836106ee565b9150826002028217905092915050565b610731826104d8565b67ffffffffffffffff81111561074a576107496104e3565b5b6107548254610541565b61075f82828561069b565b600060209050601f8311600181146107925760008415610780578287015190505b61078a858261070c565b8655506107f2565b601f1984166107a086610572565b60005b828110156107c8578489015182556001820191506020850194506020810190506107a3565b868310156107e557848901516107e1601f8916826106ee565b8355505b6001600288020188555050505b505050505050565b600073ffffffffffffffffffffffffffffffffffffffff82169050919050565b6000610825826107fa565b9050919050565b6108358161081a565b82525050565b6000602082019050610850600083018461082c565b92915050565b7f4e487b7100000000000000000000000000000000000000000000000000000000600052601160045260246000fd5b60008160011c9050919050565b6000808291508390505b60018511156108dc578086048111156108b8576108b7610856565b5b60018516156108c75780820291505b80810290506108d585610885565b945061089c565b94509492505050565b6000826108f557600190506109b1565b8161090357600090506109b1565b8160018114610919576002811461092357610952565b60019150506109b1565b60ff84111561093557610934610856565b5b8360020a91508482111561094c5761094b610856565b5b506109b1565b5060208310610133831016604e8410600b84101617156109875782820a90508381111561098257610981610856565b5b6109b1565b6109948484846001610892565b925090508184048111156109ab576109aa610856565b5b81810290505b9392505050565b600060ff82169050919050565b60006109d0826105f6565b91506109db836109b8565b9250610a087fffffffffffffffffffffffffffffffffffffffffffffffffffffffffffffffff84846108e5565b905092915050565b6000610a1b826105f6565b9150610a26836105f6565b9250828202610a34816105f6565b91508282048414831517610a4b57610a4a610856565b5b5092915050565b6000610a5d826105f6565b9150610a68836105f6565b9250828201905080821115610a8057610a7f610856565b5b92915050565b610a8f816105f6565b82525050565b6000606082019050610aaa600083018661082c565b610ab76020830185610a86565b610ac46040830184610a86565b949350505050565b6000602082019050610ae16000830184610a86565b92915050565b61146680610af66000396000f3fe608060405234801561001057600080fd5b50600436106100ea5760003560e01c8063715018a61161008c57806395d89b411161006657806395d89b4114610239578063a9059cbb14610257578063dd62ed3e14610287578063f2fde38b146102b7576100ea565b8063715018a6146101f557806379cc6790146101ff5780638da5cb5b1461021b576100ea565b806323b872dd116100c857806323b872dd1461015b578063313ce5671461018b57806340c10f19146101a957806370a08231146101c5576100ea565b806306fdde03146100ef578063095ea7b31461010d57806318160ddd1461013d575b600080fd5b6100f76102d3565b6040516101049190610efa565b60405180910390f35b61012760048036038101906101229190610fb5565b610365565b6040516101349190611010565b60405180910390f35b610145610388565b604051610152919061103a565b60405180910390f35b61017560048036038101906101709190611055565b610392565b6040516101829190611010565b60405180910390f35b6101936103c1565b6040516101a091906110c4565b60405180910390f35b6101c360048036038101906101be9190610fb5565b6103ca565b005b6101df60048036038101906101da91906110df565b6103fe565b6040516101ec919061103a565b60405180910390f35b6101fd610446565b005b61021960048036038101906102149190610fb5565b61045a565b005b61022361048e565b604051610230919061111b565b60405180910390f35b6102416104b8565b60405161024e9190610efa565b60405180910390f35b610271600480360381019061026c9190610fb5565b61054a565b60405161027e9190611010565b60405180910390f35b6102a1600480360381019061029c9190611136565b61056d565b6040516102ae919061103a565b60405180910390f35b6102d160048036038101906102cc91906110df565b6105f4565b005b6060600380546102e2906111a5565b80601f016020809104026020016040519081016040528092919081815260200182805461030e906111a5565b801561035b5780601f106103305761010080835404028352916020019161035b565b820191906000526020600020905b81548152906001019060200180831161033e57829003601f168201915b5050505050905090565b60008061037061067a565b905061037d818585610682565b600191505092915050565b6000600254905090565b60008061039d61067a565b90506103aa858285610694565b6103b5858585610729565b60019150509392505050565b60006012905090565b6103d261081d565b6103fa826103de6103c1565b600a6103ea9190611338565b836103f59190611383565b6108a4565b5050565b60008060008373ffffffffffffffffffffffffffffffffffffffff1673ffffffffffffffffffffffffffffffffffffffff168152602001908152602001600020549050919050565b61044e61081d565b6104586000610926565b565b61046261081d565b61048a8261046e6103c1565b600a61047a9190611338565b836104859190611383565b6109ec565b5050565b6000600560009054906101000a900473ffffffffffffffffffffffffffffffffffffffff16905090565b6060600480546104c7906111a5565b80601f01602080910402602001604051908101604052809291908181526020018280546104f3906111a5565b80156105405780601f1061051557610100808354040283529160200191610540565b820191906000526020600020905b81548152906001019060200180831161052357829003601f168201915b5050505050905090565b60008061055561067a565b9050610562818585610729565b600191505092915050565b6000600160008473ffffffffffffffffffffffffffffffffffffffff1673ffffffffffffffffffffffffffffffffffffffff16815260200190815260200160002060008373ffffffffffffffffffffffffffffffffffffffff1673ffffffffffffffffffffffffffffffffffffffff16815260200190815260200160002054905092915050565b6105fc61081d565b600073ffffffffffffffffffffffffffffffffffffffff168173ffffffffffffffffffffffffffffffffffffffff160361066e5760006040517f1e4fbdf7000000000000000000000000000000000000000000000000000000008152600401610665919061111b565b60405180910390fd5b61067781610926565b50565b600033905090565b61068f8383836001610a6e565b505050565b60006106a0848461056d565b90507fffffffffffffffffffffffffffffffffffffffffffffffffffffffffffffffff8110156107235781811015610713578281836040517ffb8f41b200000000000000000000000000000000000000000000000000000000815260040161070a939291906113c5565b60405180910390fd5b61072284848484036000610a6e565b5b50505050565b600073ffffffffffffffffffffffffffffffffffffffff168373ffffffffffffffffffffffffffffffffffffffff160361079b5760006040517f96c6fd1e000000000000000000000000000000000000000000000000000000008152600401610792919061111b565b60405180910390fd5b600073ffffffffffffffffffffffffffffffffffffffff168273ffffffffffffffffffffffffffffffffffffffff160361080d5760006040517fec442f05000000000000000000000000000000000000000000000000000000008152600401610804919061111b565b60405180910390fd5b610818838383610c45565b505050565b61082561067a565b73ffffffffffffffffffffffffffffffffffffffff1661084361048e565b73ffffffffffffffffffffffffffffffffffffffff16146108a25761086661067a565b6040517f118cdaa7000000000000000000000000000000000000000000000000000000008152600401610899919061111b565b60405180910390fd5b565b600073ffffffffffffffffffffffffffffffffffffffff168273ffffffffffffffffffffffffffffffffffffffff16036109165760006040517fec442f0500000000000000000000000000000000000000000000000000000000815260040161090d919061111b565b60405180910390fd5b61092260008383610c45565b5050565b6000600560009054906101000a900473ffffffffffffffffffffffffffffffffffffffff16905081600560006101000a81548173ffffffffffffffffffffffffffffffffffffffff021916908373ffffffffffffffffffffffffffffffffffffffff1602179055508173ffffffffffffffffffffffffffffffffffffffff168173ffffffffffffffffffffffffffffffffffffffff167f8be0079c531659141344cd1fd0a4f28419497f9722a3daafe3b4186f6b6457e060405160405180910390a35050565b600073ffffffffffffffffffffffffffffffffffffffff168273ffffffffffffffffffffffffffffffffffffffff1603610a5e5760006040517f96c6fd1e000000000000000000000000000000000000000000000000000000008152600401610a55919061111b565b60405180910390fd5b610a6a82600083610c45565b5050565b600073ffffffffffffffffffffffffffffffffffffffff168473ffffffffffffffffffffffffffffffffffffffff1603610ae05760006040517fe602df05000000000000000000000000000000000000000000000000000000008152600401610ad7919061111b565b60405180910390fd5b600073ffffffffffffffffffffffffffffffffffffffff168373ffffffffffffffffffffffffffffffffffffffff1603610b525760006040517f94280d62000000000000000000000000000000000000000000000000000000008152600401610b49919061111b565b60405180910390fd5b81600160008673ffffffffffffffffffffffffffffffffffffffff1673ffffffffffffffffffffffffffffffffffffffff16815260200190815260200160002060008573ffffffffffffffffffffffffffffffffffffffff1673ffffffffffffffffffffffffffffffffffffffff168152602001908152602001600020819055508015610c3f578273ffffffffffffffffffffffffffffffffffffffff168473ffffffffffffffffffffffffffffffffffffffff167f8c5be1e5ebec7d5bd14f71427d1e84f3dd0314c0f7b2291e5b200ac8c7c3b92584604051610c36919061103a565b60405180910390a35b50505050565b600073ffffffffffffffffffffffffffffffffffffffff168373ffffffffffffffffffffffffffffffffffffffff1603610c97578060026000828254610c8b91906113fc565b92505081905550610d6a565b60008060008573ffffffffffffffffffffffffffffffffffffffff1673ffffffffffffffffffffffffffffffffffffffff16815260200190815260200160002054905081811015610d23578381836040517fe450d38c000000000000000000000000000000000000000000000000000000008152600401610d1a939291906113c5565b60405180910390fd5b8181036000808673ffffffffffffffffffffffffffffffffffffffff1673ffffffffffffffffffffffffffffffffffffffff16815260200190815260200160002081905550505b600073ffffffffffffffffffffffffffffffffffffffff168273ffffffffffffffffffffffffffffffffffffffff1603610db35780600260008282540392505081905550610e00565b806000808473ffffffffffffffffffffffffffffffffffffffff1673ffffffffffffffffffffffffffffffffffffffff168152602001908152602001600020600082825401925050819055505b8173ffffffffffffffffffffffffffffffffffffffff168373ffffffffffffffffffffffffffffffffffffffff167fddf252ad1be2c89b69c2b068fc378daa952ba7f163c4a11628f55a4df523b3ef83604051610e5d919061103a565b60405180910390a3505050565b600081519050919050565b600082825260208201905092915050565b60005b83811015610ea4578082015181840152602081019050610e89565b60008484015250505050565b6000601f19601f8301169050919050565b6000610ecc82610e6a565b610ed68185610e75565b9350610ee6818560208601610e86565b610eef81610eb0565b840191505092915050565b60006020820190508181036000830152610f148184610ec1565b905092915050565b600080fd5b600073ffffffffffffffffffffffffffffffffffffffff82169050919050565b6000610f4c82610f21565b9050919050565b610f5c81610f41565b8114610f6757600080fd5b50565b600081359050610f7981610f53565b92915050565b6000819050919050565b610f9281610f7f565b8114610f9d57600080fd5b50565b600081359050610faf81610f89565b92915050565b60008060408385031215610fcc57610fcb610f1c565b5b6000610fda85828601610f6a565b9250506020610feb85828601610fa0565b9150509250929050565b60008115159050919050565b61100a81610ff5565b82525050565b60006020820190506110256000830184611001565b92915050565b61103481610f7f565b82525050565b600060208201905061104f600083018461102b565b92915050565b60008060006060848603121561106e5761106d610f1c565b5b600061107c86828701610f6a565b935050602061108d86828701610f6a565b925050604061109e86828701610fa0565b9150509250925092565b600060ff82169050919050565b6110be816110a8565b82525050565b60006020820190506110d960008301846110b5565b92915050565b6000602082840312156110f5576110f4610f1c565b5b600061110384828501610f6a565b91505092915050565b61111581610f41565b82525050565b6000602082019050611130600083018461110c565b92915050565b6000806040838503121561114d5761114c610f1c565b5b600061115b85828601610f6a565b925050602061116c85828601610f6a565b9150509250929050565b7f4e487b7100000000000000000000000000000000000000000000000000000000600052602260045260246000fd5b600060028204905060018216806111bd57607f821691505b6020821081036111d0576111cf611176565b5b50919050565b7f4e487b7100000000000000000000000000000000000000000000000000000000600052601160045260246000fd5b60008160011c9050919050565b6000808291508390505b600185111561125c57808604811115611238576112376111d6565b5b60018516156112475780820291505b808102905061125585611205565b945061121c565b94509492505050565b6000826112755760019050611331565b816112835760009050611331565b816001811461129957600281146112a3576112d2565b6001915050611331565b60ff8411156112b5576112b46111d6565b5b8360020a9150848211156112cc576112cb6111d6565b5b50611331565b5060208310610133831016604e8410600b84101617156113075782820a905083811115611302576113016111d6565b5b611331565b6113148484846001611212565b9250905081840481111561132b5761132a6111d6565b5b81810290505b9392505050565b600061134382610f7f565b915061134e836110a8565b925061137b7fffffffffffffffffffffffffffffffffffffffffffffffffffffffffffffffff8484611265565b905092915050565b600061138e82610f7f565b915061139983610f7f565b92508282026113a781610f7f565b915082820484148315176113be576113bd6111d6565b5b5092915050565b60006060820190506113da600083018661110c565b6113e7602083018561102b565b6113f4604083018461102b565b949350505050565b600061140782610f7f565b915061141283610f7f565b925082820190508082111561142a576114296111d6565b5b9291505056fea26469706673582212203d6302cce850dd54f14ef17bd8c6857ba98af6d6be76128e0c8617ffd681e5e964736f6c634300081c0033",
  "linkReferences": {},
  "deployedLinkReferences": {}
}