{
  "_format": "hh-sol-artifact-1",
  "contractName": "Program",
  "sourceName": "contracts/Program.sol",
  "abi": [
    {
      "inputs": [
        {
          "internalType": "string[]",
          "name": "_itemNames",
          "type": "string[]"
        },
        {
          "internalType": "uint256[]",
          "name": "_tokenCosts",
          "type": "uint256[]"
        },
        {
          "internalType": "uint256[]",
          "name": "_stocks",
          "type": "uint256[]"
        },
        {
          "internalType": "address",
          "name": "_tokenAddress",
          "type": "address"
        }
      ],
      "stateMutability": "nonpayable",
      "type": "constructor"
    },
    {
      "inputs": [
        {
          "internalType": "string",
          "name": "_itemName",
          "type": "string"
        },
        {
          "internalType": "uint256",
          "name": "_tokenCost",
          "type": "uint256"
        },
        {
          "internalType": "uint256",
          "name": "_initialStock",
          "type": "uint256"
        }
      ],
      "name": "addItem",
      "outputs": [],
      "stateMutability": "nonpayable",
      "type": "function"
    },
    {
      "inputs": [],
      "name": "getAllItems",
      "outputs": [
        {
          "internalType": "string[]",
          "name": "",
          "type": "string[]"
        },
        {
          "internalType": "uint256[]",
          "name": "",
          "type": "uint256[]"
        },
        {
          "internalType": "uint256[]",
          "name": "",
          "type": "uint256[]"
        }
      ],
      "stateMutability": "view",
      "type": "function"
    },
    {
      "inputs": [
        {
          "internalType": "uint256",
          "name": "",
          "type": "uint256"
        }
      ],
      "name": "itemNames",
      "outputs": [
        {
          "internalType": "string",
          "name": "",
          "type": "string"
        }
      ],
      "stateMutability": "view",
      "type": "function"
    },
    {
      "inputs": [],
      "name": "loyaltyToken",
      "outputs": [
        {
          "internalType": "contract IERC20",
          "name": "",
          "type": "address"
        }
      ],
      "stateMutability": "view",
      "type": "function"
    },
    {
      "inputs": [],
      "name": "owner",
      "outputs": [
        {
          "internalType": "address",
          "name": "",
          "type": "address"
        }
      ],
      "stateMutability": "view",
      "type": "function"
    },
    {
      "inputs": [
        {
          "internalType": "string",
          "name": "",
          "type": "string"
        }
      ],
      "name": "purchasableItems",
      "outputs": [
        {
          "internalType": "uint256",
          "name": "tokenCost",
          "type": "uint256"
        },
        {
          "internalType": "uint256",
          "name": "stock",
          "type": "uint256"
        },
        {
          "internalType": "bool",
          "name": "isSet",
          "type": "bool"
        }
      ],
      "stateMutability": "view",
      "type": "function"
    },
    {
      "inputs": [
        {
          "internalType": "string",
          "name": "_itemName",
          "type": "string"
        }
      ],
      "name": "removeItem",
      "outputs": [],
      "stateMutability": "nonpayable",
      "type": "function"
    }
  ],
  "bytecode": "0x608060405234801561001057600080fd5b50604051611eeb380380611eeb83398181016040528101906100329190610598565b60005b845181101561019c57600285828151811061005357610052610653565b5b602002602001015190806001815401808255809150506001900390600052602060002001600090919091909150908161008c9190610899565b5060405180606001604052808583815181106100ab576100aa610653565b5b602002602001015181526020018483815181106100cb576100ca610653565b5b602002602001015181526020016001151581525060018683815181106100f4576100f3610653565b5b602002602001015160405161010991906109a7565b9081526020016040518091039020600082015181600001556020820151816001015560408201518160020160006101000a81548160ff02191690831515021790555090505081600360006101000a81548173ffffffffffffffffffffffffffffffffffffffff021916908373ffffffffffffffffffffffffffffffffffffffff1602179055508080600101915050610035565b50336000806101000a81548173ffffffffffffffffffffffffffffffffffffffff021916908373ffffffffffffffffffffffffffffffffffffffff160217905550505050506109be565b6000604051905090565b600080fd5b600080fd5b600080fd5b6000601f19601f8301169050919050565b7f4e487b7100000000000000000000000000000000000000000000000000000000600052604160045260246000fd5b610248826101ff565b810181811067ffffffffffffffff8211171561026757610266610210565b5b80604052505050565b600061027a6101e6565b9050610286828261023f565b919050565b600067ffffffffffffffff8211156102a6576102a5610210565b5b602082029050602081019050919050565b600080fd5b600080fd5b600067ffffffffffffffff8211156102dc576102db610210565b5b6102e5826101ff565b9050602081019050919050565b60005b838110156103105780820151818401526020810190506102f5565b60008484015250505050565b600061032f61032a846102c1565b610270565b90508281526020810184848401111561034b5761034a6102bc565b5b6103568482856102f2565b509392505050565b600082601f830112610373576103726101fa565b5b815161038384826020860161031c565b91505092915050565b600061039f61039a8461028b565b610270565b905080838252602082019050602084028301858111156103c2576103c16102b7565b5b835b8181101561040957805167ffffffffffffffff8111156103e7576103e66101fa565b5b8086016103f4898261035e565b855260208501945050506020810190506103c4565b5050509392505050565b600082601f830112610428576104276101fa565b5b815161043884826020860161038c565b91505092915050565b600067ffffffffffffffff82111561045c5761045b610210565b5b602082029050602081019050919050565b6000819050919050565b6104808161046d565b811461048b57600080fd5b50565b60008151905061049d81610477565b92915050565b60006104b66104b184610441565b610270565b905080838252602082019050602084028301858111156104d9576104d86102b7565b5b835b8181101561050257806104ee888261048e565b8452602084019350506020810190506104db565b5050509392505050565b600082601f830112610521576105206101fa565b5b81516105318482602086016104a3565b91505092915050565b600073ffffffffffffffffffffffffffffffffffffffff82169050919050565b60006105658261053a565b9050919050565b6105758161055a565b811461058057600080fd5b50565b6000815190506105928161056c565b92915050565b600080600080608085870312156105b2576105b16101f0565b5b600085015167ffffffffffffffff8111156105d0576105cf6101f5565b5b6105dc87828801610413565b945050602085015167ffffffffffffffff8111156105fd576105fc6101f5565b5b6106098782880161050c565b935050604085015167ffffffffffffffff81111561062a576106296101f5565b5b6106368782880161050c565b925050606061064787828801610583565b91505092959194509250565b7f4e487b7100000000000000000000000000000000000000000000000000000000600052603260045260246000fd5b600081519050919050565b7f4e487b7100000000000000000000000000000000000000000000000000000000600052602260045260246000fd5b600060028204905060018216806106d457607f821691505b6020821081036106e7576106e661068d565b5b50919050565b60008190508160005260206000209050919050565b60006020601f8301049050919050565b600082821b905092915050565b60006008830261074f7fffffffffffffffffffffffffffffffffffffffffffffffffffffffffffffffff82610712565b6107598683610712565b95508019841693508086168417925050509392505050565b6000819050919050565b600061079661079161078c8461046d565b610771565b61046d565b9050919050565b6000819050919050565b6107b08361077b565b6107c46107bc8261079d565b84845461071f565b825550505050565b600090565b6107d96107cc565b6107e48184846107a7565b505050565b5b81811015610808576107fd6000826107d1565b6001810190506107ea565b5050565b601f82111561084d5761081e816106ed565b61082784610702565b81016020851015610836578190505b61084a61084285610702565b8301826107e9565b50505b505050565b600082821c905092915050565b600061087060001984600802610852565b1980831691505092915050565b6000610889838361085f565b9150826002028217905092915050565b6108a282610682565b67ffffffffffffffff8111156108bb576108ba610210565b5b6108c582546106bc565b6108d082828561080c565b600060209050601f83116001811461090357600084156108f1578287015190505b6108fb858261087d565b865550610963565b601f198416610911866106ed565b60005b8281101561093957848901518255600182019150602085019450602081019050610914565b868310156109565784890151610952601f89168261085f565b8355505b6001600288020188555050505b505050505050565b600081905092915050565b600061098182610682565b61098b818561096b565b935061099b8185602086016102f2565b80840191505092915050565b60006109b38284610976565b915081905092915050565b61151e806109cd6000396000f3fe608060405234801561001057600080fd5b506004361061007d5760003560e01c8063887b5f0f1161005b578063887b5f0f146100dc5780638da5cb5b1461010e578063c34a5b981461012c578063d5e6c3331461015c5761007d565b80634ba1d6aa1461008257806368dfa8ba146100a2578063770aa84d146100be575b600080fd5b61008a610178565b60405161009993929190610acb565b60405180910390f35b6100bc60048036038101906100b79190610c60565b6104ea565b005b6100c6610640565b6040516100d39190610d28565b60405180910390f35b6100f660048036038101906100f19190610c60565b610666565b60405161010593929190610d6d565b60405180910390f35b6101166106b3565b6040516101239190610dc5565b60405180910390f35b61014660048036038101906101419190610e0c565b6106d7565b6040516101539190610e83565b60405180910390f35b61017660048036038101906101719190610ea5565b610783565b005b6060806060600060028054905090506000808267ffffffffffffffff8111156101a4576101a3610b35565b5b6040519080825280602002602001820160405280156101d757816020015b60608152602001906001900390816101c25790505b50905060008367ffffffffffffffff8111156101f6576101f5610b35565b5b6040519080825280602002602001820160405280156102245781602001602082028036833780820191505090505b50905060008467ffffffffffffffff81111561024357610242610b35565b5b6040519080825280602002602001820160405280156102715781602001602082028036833780820191505090505b50905060005b858110156104d65761032e6002828154811061029657610295610f14565b5b9060005260206000200180546102ab90610f72565b80601f01602080910402602001604051908101604052809291908181526020018280546102d790610f72565b80156103245780601f106102f957610100808354040283529160200191610324565b820191906000526020600020905b81548152906001019060200180831161030757829003601f168201915b5050505050610879565b156104c957600060016002838154811061034b5761034a610f14565b5b906000526020600020016040516103629190611046565b908152602001604051809103902060405180606001604052908160008201548152602001600182015481526020016002820160009054906101000a900460ff1615151515815250509050600282815481106103c0576103bf610f14565b5b9060005260206000200180546103d590610f72565b80601f016020809104026020016040519081016040528092919081815260200182805461040190610f72565b801561044e5780601f106104235761010080835404028352916020019161044e565b820191906000526020600020905b81548152906001019060200180831161043157829003601f168201915b505050505085878151811061046657610465610f14565b5b6020026020010181905250806000015184878151811061048957610488610f14565b5b60200260200101818152505080602001518387815181106104ad576104ac610f14565b5b60200260200101818152505085806104c49061108c565b965050505b8080600101915050610277565b508282829750975097505050505050909192565b6104f381610879565b610532576040517f08c379a000000000000000000000000000000000000000000000000000000000815260040161052990611120565b60405180910390fd5b60006001826040516105449190611171565b9081526020016040518091039020600101541015610597576040517f08c379a000000000000000000000000000000000000000000000000000000000815260040161058e906111d4565b60405180910390fd5b6001816040516105a79190611171565b908152602001604051809103902060010160008154809291906105c9906111f4565b919050555060006001826040516105e09190611171565b9081526020016040518091039020600101540361063d576001816040516106079190611171565b908152602001604051809103902060008082016000905560018201600090556002820160006101000a81549060ff021916905550505b50565b600360009054906101000a900473ffffffffffffffffffffffffffffffffffffffff1681565b6001818051602081018201805184825260208301602085012081835280955050505050506000915090508060000154908060010154908060020160009054906101000a900460ff16905083565b60008054906101000a900473ffffffffffffffffffffffffffffffffffffffff1681565b600281815481106106e757600080fd5b90600052602060002001600091509050805461070290610f72565b80601f016020809104026020016040519081016040528092919081815260200182805461072e90610f72565b801561077b5780601f106107505761010080835404028352916020019161077b565b820191906000526020600020905b81548152906001019060200180831161075e57829003601f168201915b505050505081565b61078c83610879565b156107cc576040517f08c379a00000000000000000000000000000000000000000000000000000000081526004016107c390611269565b60405180910390fd5b6040518060600160405280838152602001828152602001600115158152506001846040516107fa9190611171565b9081526020016040518091039020600082015181600001556020820151816001015560408201518160020160006101000a81548160ff0219169083151502179055509050506002839080600181540180825580915050600190039060005260206000200160009091909190915090816108739190611416565b50505050565b600060018260405161088b9190611171565b908152602001604051809103902060020160009054906101000a900460ff169050919050565b600081519050919050565b600082825260208201905092915050565b6000819050602082019050919050565b600081519050919050565b600082825260208201905092915050565b60005b838110156109175780820151818401526020810190506108fc565b60008484015250505050565b6000601f19601f8301169050919050565b600061093f826108dd565b61094981856108e8565b93506109598185602086016108f9565b61096281610923565b840191505092915050565b60006109798383610934565b905092915050565b6000602082019050919050565b6000610999826108b1565b6109a381856108bc565b9350836020820285016109b5856108cd565b8060005b858110156109f157848403895281516109d2858261096d565b94506109dd83610981565b925060208a019950506001810190506109b9565b50829750879550505050505092915050565b600081519050919050565b600082825260208201905092915050565b6000819050602082019050919050565b6000819050919050565b610a4281610a2f565b82525050565b6000610a548383610a39565b60208301905092915050565b6000602082019050919050565b6000610a7882610a03565b610a828185610a0e565b9350610a8d83610a1f565b8060005b83811015610abe578151610aa58882610a48565b9750610ab083610a60565b925050600181019050610a91565b5085935050505092915050565b60006060820190508181036000830152610ae5818661098e565b90508181036020830152610af98185610a6d565b90508181036040830152610b0d8184610a6d565b9050949350505050565b6000604051905090565b600080fd5b600080fd5b600080fd5b600080fd5b7f4e487b7100000000000000000000000000000000000000000000000000000000600052604160045260246000fd5b610b6d82610923565b810181811067ffffffffffffffff82111715610b8c57610b8b610b35565b5b80604052505050565b6000610b9f610b17565b9050610bab8282610b64565b919050565b600067ffffffffffffffff821115610bcb57610bca610b35565b5b610bd482610923565b9050602081019050919050565b82818337600083830152505050565b6000610c03610bfe84610bb0565b610b95565b905082815260208101848484011115610c1f57610c1e610b30565b5b610c2a848285610be1565b509392505050565b600082601f830112610c4757610c46610b2b565b5b8135610c57848260208601610bf0565b91505092915050565b600060208284031215610c7657610c75610b21565b5b600082013567ffffffffffffffff811115610c9457610c93610b26565b5b610ca084828501610c32565b91505092915050565b600073ffffffffffffffffffffffffffffffffffffffff82169050919050565b6000819050919050565b6000610cee610ce9610ce484610ca9565b610cc9565b610ca9565b9050919050565b6000610d0082610cd3565b9050919050565b6000610d1282610cf5565b9050919050565b610d2281610d07565b82525050565b6000602082019050610d3d6000830184610d19565b92915050565b610d4c81610a2f565b82525050565b60008115159050919050565b610d6781610d52565b82525050565b6000606082019050610d826000830186610d43565b610d8f6020830185610d43565b610d9c6040830184610d5e565b949350505050565b6000610daf82610ca9565b9050919050565b610dbf81610da4565b82525050565b6000602082019050610dda6000830184610db6565b92915050565b610de981610a2f565b8114610df457600080fd5b50565b600081359050610e0681610de0565b92915050565b600060208284031215610e2257610e21610b21565b5b6000610e3084828501610df7565b91505092915050565b600082825260208201905092915050565b6000610e55826108dd565b610e5f8185610e39565b9350610e6f8185602086016108f9565b610e7881610923565b840191505092915050565b60006020820190508181036000830152610e9d8184610e4a565b905092915050565b600080600060608486031215610ebe57610ebd610b21565b5b600084013567ffffffffffffffff811115610edc57610edb610b26565b5b610ee886828701610c32565b9350506020610ef986828701610df7565b9250506040610f0a86828701610df7565b9150509250925092565b7f4e487b7100000000000000000000000000000000000000000000000000000000600052603260045260246000fd5b7f4e487b7100000000000000000000000000000000000000000000000000000000600052602260045260246000fd5b60006002820490506001821680610f8a57607f821691505b602082108103610f9d57610f9c610f43565b5b50919050565b600081905092915050565b60008190508160005260206000209050919050565b60008154610fd081610f72565b610fda8186610fa3565b94506001821660008114610ff5576001811461100a5761103d565b60ff198316865281151582028601935061103d565b61101385610fae565b60005b8381101561103557815481890152600182019150602081019050611016565b838801955050505b50505092915050565b60006110528284610fc3565b915081905092915050565b7f4e487b7100000000000000000000000000000000000000000000000000000000600052601160045260246000fd5b600061109782610a2f565b91507fffffffffffffffffffffffffffffffffffffffffffffffffffffffffffffffff82036110c9576110c861105d565b5b600182019050919050565b7f4974656d20646f6573206e6f7420457869737400000000000000000000000000600082015250565b600061110a601383610e39565b9150611115826110d4565b602082019050919050565b60006020820190508181036000830152611139816110fd565b9050919050565b600061114b826108dd565b6111558185610fa3565b93506111658185602086016108f9565b80840191505092915050565b600061117d8284611140565b915081905092915050565b7f4974656d204f7574206f662053746f636b000000000000000000000000000000600082015250565b60006111be601183610e39565b91506111c982611188565b602082019050919050565b600060208201905081810360008301526111ed816111b1565b9050919050565b60006111ff82610a2f565b9150600082036112125761121161105d565b5b600182039050919050565b7f4974656d20416c72656164792045786973747300000000000000000000000000600082015250565b6000611253601383610e39565b915061125e8261121d565b602082019050919050565b6000602082019050818103600083015261128281611246565b9050919050565b60006020601f8301049050919050565b600082821b905092915050565b6000600883026112d67fffffffffffffffffffffffffffffffffffffffffffffffffffffffffffffffff82611299565b6112e08683611299565b95508019841693508086168417925050509392505050565b600061131361130e61130984610a2f565b610cc9565b610a2f565b9050919050565b6000819050919050565b61132d836112f8565b6113416113398261131a565b8484546112a6565b825550505050565b600090565b611356611349565b611361818484611324565b505050565b5b818110156113855761137a60008261134e565b600181019050611367565b5050565b601f8211156113ca5761139b81610fae565b6113a484611289565b810160208510156113b3578190505b6113c76113bf85611289565b830182611366565b50505b505050565b600082821c905092915050565b60006113ed600019846008026113cf565b1980831691505092915050565b600061140683836113dc565b9150826002028217905092915050565b61141f826108dd565b67ffffffffffffffff81111561143857611437610b35565b5b6114428254610f72565b61144d828285611389565b600060209050601f831160018114611480576000841561146e578287015190505b61147885826113fa565b8655506114e0565b601f19841661148e86610fae565b60005b828110156114b657848901518255600182019150602085019450602081019050611491565b868310156114d357848901516114cf601f8916826113dc565b8355505b6001600288020188555050505b50505050505056fea26469706673582212200426ce9f57a5882f79308f88c32a591f7b353b61079b25da60d40ece920a42f464736f6c634300081c0033",
  "linkReferences": {},
  "deployedLinkReferences": {}
}